{
  "_format": "hh-sol-artifact-1",
  "contractName": "FileShare",
  "sourceName": "contracts/FileShare.sol",
  "abi": [
    {
      "inputs": [
        {
          "internalType": "address",
          "name": "_user",
          "type": "address"
        },
        {
          "internalType": "string",
          "name": "_fileName",
          "type": "string"
        },
        {
          "internalType": "string",
          "name": "_ipfsHash",
          "type": "string"
        }
      ],
      "name": "add",
      "outputs": [],
      "stateMutability": "nonpayable",
      "type": "function"
    },
    {
      "inputs": [
        {
          "internalType": "address",
          "name": "_user",
          "type": "address"
        }
      ],
      "name": "allow",
      "outputs": [],
      "stateMutability": "nonpayable",
      "type": "function"
    },
    {
      "inputs": [
        {
          "internalType": "address",
          "name": "_user",
          "type": "address"
        }
      ],
      "name": "deleteAllUrls",
      "outputs": [],
      "stateMutability": "nonpayable",
      "type": "function"
    },
    {
      "inputs": [
        {
          "internalType": "address",
          "name": "_user",
          "type": "address"
        },
        {
          "internalType": "string",
          "name": "_ipfsHash",
          "type": "string"
        }
      ],
      "name": "deleteOneUrl",
      "outputs": [],
      "stateMutability": "nonpayable",
      "type": "function"
    },
    {
      "inputs": [
        {
          "internalType": "address",
          "name": "_user",
          "type": "address"
        }
      ],
      "name": "disAllow",
      "outputs": [],
      "stateMutability": "nonpayable",
      "type": "function"
    },
    {
      "inputs": [
        {
          "internalType": "address",
          "name": "_user",
          "type": "address"
        }
      ],
      "name": "display",
      "outputs": [
        {
          "components": [
            {
              "internalType": "string",
              "name": "fileName",
              "type": "string"
            },
            {
              "internalType": "string",
              "name": "ipfsHash",
              "type": "string"
            }
          ],
          "internalType": "struct FileShare.FileName[]",
          "name": "",
          "type": "tuple[]"
        }
      ],
      "stateMutability": "view",
      "type": "function"
    },
    {
      "inputs": [],
      "name": "shareList",
      "outputs": [
        {
          "components": [
            {
              "internalType": "address",
              "name": "user",
              "type": "address"
            },
            {
              "internalType": "bool",
              "name": "access",
              "type": "bool"
            }
          ],
          "internalType": "struct FileShare.Access[]",
          "name": "",
          "type": "tuple[]"
        }
      ],
      "stateMutability": "view",
      "type": "function"
    }
  ],
  "bytecode": "0x608060405234801561001057600080fd5b506121a6806100206000396000f3fe608060405234801561001057600080fd5b506004361061007d5760003560e01c8063aa1b9d041161005b578063aa1b9d04146100d6578063cf8aacdd146100f4578063eb39113f14610110578063ff9913e8146101405761007d565b806346bc7fd91461008257806357dadaf41461009e57806381b046c9146100ba575b600080fd5b61009c60048036038101906100979190611491565b61015c565b005b6100b860048036038101906100b39190611667565b610295565b005b6100d460048036038101906100cf91906116c3565b610681565b005b6100de61073e565b6040516100eb91906117f8565b60405180910390f35b61010e600480360381019061010991906116c3565b610847565b005b61012a600480360381019061012591906116c3565b610b2e565b604051610137919061199f565b60405180910390f35b61015a600480360381019061015591906116c3565b610df0565b005b6000808673ffffffffffffffffffffffffffffffffffffffff1673ffffffffffffffffffffffffffffffffffffffff168152602001908152602001600020604051806040016040528086868080601f016020809104026020016040519081016040528093929190818152602001838380828437600081840152601f19601f82011690508083019250505050505050815260200184848080601f016020809104026020016040519081016040528093929190818152602001838380828437600081840152601f19601f82011690508083019250505050505050815250908060018154018082558091505060019003906000526020600020906002020160009091909190915060008201518160000190816102759190611bd7565b50602082015181600101908161028b9190611bd7565b5050505050505050565b818073ffffffffffffffffffffffffffffffffffffffff163373ffffffffffffffffffffffffffffffffffffffff1614610304576040517f08c379a00000000000000000000000000000000000000000000000000000000081526004016102fb90611d2c565b60405180910390fd5b60005b6000808573ffffffffffffffffffffffffffffffffffffffff1673ffffffffffffffffffffffffffffffffffffffff1681526020019081526020016000208054905081101561067b57826040516020016103619190611d88565b604051602081830303815290604052805190602001206000808673ffffffffffffffffffffffffffffffffffffffff1673ffffffffffffffffffffffffffffffffffffffff16815260200190815260200160002082815481106103c7576103c6611d9f565b5b90600052602060002090600202016001016040516020016103e89190611e51565b604051602081830303815290604052805190602001200361066e576000808573ffffffffffffffffffffffffffffffffffffffff1673ffffffffffffffffffffffffffffffffffffffff168152602001908152602001600020818154811061045357610452611d9f565b5b9060005260206000209060020201600080820160006104729190611302565b6001820160006104829190611302565b505060008190505b60016000808773ffffffffffffffffffffffffffffffffffffffff1673ffffffffffffffffffffffffffffffffffffffff168152602001908152602001600020805490506104d89190611e97565b8110156105e1576000808673ffffffffffffffffffffffffffffffffffffffff1673ffffffffffffffffffffffffffffffffffffffff16815260200190815260200160002060018261052a9190611ecb565b8154811061053b5761053a611d9f565b5b90600052602060002090600202016000808773ffffffffffffffffffffffffffffffffffffffff1673ffffffffffffffffffffffffffffffffffffffff168152602001908152602001600020828154811061059957610598611d9f565b5b9060005260206000209060020201600082018160000190816105bb9190611f15565b50600182018160010190816105d09190611f15565b50905050808060010191505061048a565b506000808573ffffffffffffffffffffffffffffffffffffffff1673ffffffffffffffffffffffffffffffffffffffff1681526020019081526020016000208054806106305761062f611ffd565b5b6001900381819060005260206000209060020201600080820160006106559190611302565b6001820160006106659190611302565b5050905561067b565b8080600101915050610307565b50505050565b808073ffffffffffffffffffffffffffffffffffffffff163373ffffffffffffffffffffffffffffffffffffffff16146106f0576040517f08c379a00000000000000000000000000000000000000000000000000000000081526004016106e790611d2c565b60405180910390fd5b6000808373ffffffffffffffffffffffffffffffffffffffff1673ffffffffffffffffffffffffffffffffffffffff168152602001908152602001600020600061073a9190611342565b5050565b6060600260003373ffffffffffffffffffffffffffffffffffffffff1673ffffffffffffffffffffffffffffffffffffffff168152602001908152602001600020805480602002602001604051908101604052809291908181526020016000905b8282101561083e578382906000526020600020016040518060400160405290816000820160009054906101000a900473ffffffffffffffffffffffffffffffffffffffff1673ffffffffffffffffffffffffffffffffffffffff1673ffffffffffffffffffffffffffffffffffffffff1681526020016000820160149054906101000a900460ff1615151515815250508152602001906001019061079f565b50505050905090565b80600160003373ffffffffffffffffffffffffffffffffffffffff1673ffffffffffffffffffffffffffffffffffffffff16815260200190815260200160002060008273ffffffffffffffffffffffffffffffffffffffff1673ffffffffffffffffffffffffffffffffffffffff16815260200190815260200160002060009054906101000a900460ff16610911576040517f08c379a000000000000000000000000000000000000000000000000000000000815260040161090890612078565b60405180910390fd5b6000600160003373ffffffffffffffffffffffffffffffffffffffff1673ffffffffffffffffffffffffffffffffffffffff16815260200190815260200160002060008473ffffffffffffffffffffffffffffffffffffffff1673ffffffffffffffffffffffffffffffffffffffff16815260200190815260200160002060006101000a81548160ff02191690831515021790555060005b600260003373ffffffffffffffffffffffffffffffffffffffff1673ffffffffffffffffffffffffffffffffffffffff16815260200190815260200160002080549050811015610b29578273ffffffffffffffffffffffffffffffffffffffff16600260003373ffffffffffffffffffffffffffffffffffffffff1673ffffffffffffffffffffffffffffffffffffffff1681526020019081526020016000208281548110610a5b57610a5a611d9f565b5b9060005260206000200160000160009054906101000a900473ffffffffffffffffffffffffffffffffffffffff1673ffffffffffffffffffffffffffffffffffffffff1603610b1c576000600260003373ffffffffffffffffffffffffffffffffffffffff1673ffffffffffffffffffffffffffffffffffffffff1681526020019081526020016000208281548110610af757610af6611d9f565b5b9060005260206000200160000160146101000a81548160ff0219169083151502179055505b80806001019150506109a9565b505050565b6060818073ffffffffffffffffffffffffffffffffffffffff163373ffffffffffffffffffffffffffffffffffffffff161480610bf15750600160003373ffffffffffffffffffffffffffffffffffffffff1673ffffffffffffffffffffffffffffffffffffffff16815260200190815260200160002060008273ffffffffffffffffffffffffffffffffffffffff1673ffffffffffffffffffffffffffffffffffffffff16815260200190815260200160002060009054906101000a900460ff165b610c30576040517f08c379a0000000000000000000000000000000000000000000000000000000008152600401610c27906120e4565b60405180910390fd5b6000808473ffffffffffffffffffffffffffffffffffffffff1673ffffffffffffffffffffffffffffffffffffffff168152602001908152602001600020805480602002602001604051908101604052809291908181526020016000905b82821015610de45783829060005260206000209060020201604051806040016040529081600082018054610cc1906119f0565b80601f0160208091040260200160405190810160405280929190818152602001828054610ced906119f0565b8015610d3a5780601f10610d0f57610100808354040283529160200191610d3a565b820191906000526020600020905b815481529060010190602001808311610d1d57829003601f168201915b50505050508152602001600182018054610d53906119f0565b80601f0160208091040260200160405190810160405280929190818152602001828054610d7f906119f0565b8015610dcc5780601f10610da157610100808354040283529160200191610dcc565b820191906000526020600020905b815481529060010190602001808311610daf57829003601f168201915b50505050508152505081526020019060010190610c8e565b50505050915050919050565b80600160003373ffffffffffffffffffffffffffffffffffffffff1673ffffffffffffffffffffffffffffffffffffffff16815260200190815260200160002060008273ffffffffffffffffffffffffffffffffffffffff1673ffffffffffffffffffffffffffffffffffffffff16815260200190815260200160002060009054906101000a900460ff1615610ebb576040517f08c379a0000000000000000000000000000000000000000000000000000000008152600401610eb290612150565b60405180910390fd5b60018060003373ffffffffffffffffffffffffffffffffffffffff1673ffffffffffffffffffffffffffffffffffffffff16815260200190815260200160002060008473ffffffffffffffffffffffffffffffffffffffff1673ffffffffffffffffffffffffffffffffffffffff16815260200190815260200160002060006101000a81548160ff02191690831515021790555060011515600360003373ffffffffffffffffffffffffffffffffffffffff1673ffffffffffffffffffffffffffffffffffffffff16815260200190815260200160002060008473ffffffffffffffffffffffffffffffffffffffff1673ffffffffffffffffffffffffffffffffffffffff16815260200190815260200160002060009054906101000a900460ff1615150361116d5760005b600260003373ffffffffffffffffffffffffffffffffffffffff1673ffffffffffffffffffffffffffffffffffffffff16815260200190815260200160002080549050811015611167578273ffffffffffffffffffffffffffffffffffffffff16600260003373ffffffffffffffffffffffffffffffffffffffff1673ffffffffffffffffffffffffffffffffffffffff168152602001908152602001600020828154811061109957611098611d9f565b5b9060005260206000200160000160009054906101000a900473ffffffffffffffffffffffffffffffffffffffff1673ffffffffffffffffffffffffffffffffffffffff160361115a576001600260003373ffffffffffffffffffffffffffffffffffffffff1673ffffffffffffffffffffffffffffffffffffffff168152602001908152602001600020828154811061113557611134611d9f565b5b9060005260206000200160000160146101000a81548160ff0219169083151502179055505b8080600101915050610fe7565b506112fe565b600260003373ffffffffffffffffffffffffffffffffffffffff1673ffffffffffffffffffffffffffffffffffffffff16815260200190815260200160002060405180604001604052808473ffffffffffffffffffffffffffffffffffffffff168152602001600115158152509080600181540180825580915050600190039060005260206000200160009091909190915060008201518160000160006101000a81548173ffffffffffffffffffffffffffffffffffffffff021916908373ffffffffffffffffffffffffffffffffffffffff16021790555060208201518160000160146101000a81548160ff02191690831515021790555050506001600360003373ffffffffffffffffffffffffffffffffffffffff1673ffffffffffffffffffffffffffffffffffffffff16815260200190815260200160002060008473ffffffffffffffffffffffffffffffffffffffff1673ffffffffffffffffffffffffffffffffffffffff16815260200190815260200160002060006101000a81548160ff0219169083151502179055505b5050565b50805461130e906119f0565b6000825580601f10611320575061133f565b601f01602090049060005260206000209081019061133e9190611366565b5b50565b50805460008255600202906000526020600020908101906113639190611383565b50565b5b8082111561137f576000816000905550600101611367565b5090565b5b808211156113b6576000808201600061139d9190611302565b6001820160006113ad9190611302565b50600201611384565b5090565b6000604051905090565b600080fd5b600080fd5b600073ffffffffffffffffffffffffffffffffffffffff82169050919050565b60006113f9826113ce565b9050919050565b611409816113ee565b811461141457600080fd5b50565b60008135905061142681611400565b92915050565b600080fd5b600080fd5b600080fd5b60008083601f8401126114515761145061142c565b5b8235905067ffffffffffffffff81111561146e5761146d611431565b5b60208301915083600182028301111561148a57611489611436565b5b9250929050565b6000806000806000606086880312156114ad576114ac6113c4565b5b60006114bb88828901611417565b955050602086013567ffffffffffffffff8111156114dc576114db6113c9565b5b6114e88882890161143b565b9450945050604086013567ffffffffffffffff81111561150b5761150a6113c9565b5b6115178882890161143b565b92509250509295509295909350565b600080fd5b6000601f19601f8301169050919050565b7f4e487b7100000000000000000000000000000000000000000000000000000000600052604160045260246000fd5b6115748261152b565b810181811067ffffffffffffffff821117156115935761159261153c565b5b80604052505050565b60006115a66113ba565b90506115b2828261156b565b919050565b600067ffffffffffffffff8211156115d2576115d161153c565b5b6115db8261152b565b9050602081019050919050565b82818337600083830152505050565b600061160a611605846115b7565b61159c565b90508281526020810184848401111561162657611625611526565b5b6116318482856115e8565b509392505050565b600082601f83011261164e5761164d61142c565b5b813561165e8482602086016115f7565b91505092915050565b6000806040838503121561167e5761167d6113c4565b5b600061168c85828601611417565b925050602083013567ffffffffffffffff8111156116ad576116ac6113c9565b5b6116b985828601611639565b9150509250929050565b6000602082840312156116d9576116d86113c4565b5b60006116e784828501611417565b91505092915050565b600081519050919050565b600082825260208201905092915050565b6000819050602082019050919050565b611725816113ee565b82525050565b60008115159050919050565b6117408161172b565b82525050565b60408201600082015161175c600085018261171c565b50602082015161176f6020850182611737565b50505050565b60006117818383611746565b60408301905092915050565b6000602082019050919050565b60006117a5826116f0565b6117af81856116fb565b93506117ba8361170c565b8060005b838110156117eb5781516117d28882611775565b97506117dd8361178d565b9250506001810190506117be565b5085935050505092915050565b60006020820190508181036000830152611812818461179a565b905092915050565b600081519050919050565b600082825260208201905092915050565b6000819050602082019050919050565b600081519050919050565b600082825260208201905092915050565b60005b83811015611880578082015181840152602081019050611865565b60008484015250505050565b600061189782611846565b6118a18185611851565b93506118b1818560208601611862565b6118ba8161152b565b840191505092915050565b600060408301600083015184820360008601526118e2828261188c565b915050602083015184820360208601526118fc828261188c565b9150508091505092915050565b600061191583836118c5565b905092915050565b6000602082019050919050565b60006119358261181a565b61193f8185611825565b93508360208202850161195185611836565b8060005b8581101561198d578484038952815161196e8582611909565b94506119798361191d565b925060208a01995050600181019050611955565b50829750879550505050505092915050565b600060208201905081810360008301526119b9818461192a565b905092915050565b7f4e487b7100000000000000000000000000000000000000000000000000000000600052602260045260246000fd5b60006002820490506001821680611a0857607f821691505b602082108103611a1b57611a1a6119c1565b5b50919050565b60008190508160005260206000209050919050565b60006020601f8301049050919050565b600082821b905092915050565b600060088302611a837fffffffffffffffffffffffffffffffffffffffffffffffffffffffffffffffff82611a46565b611a8d8683611a46565b95508019841693508086168417925050509392505050565b6000819050919050565b6000819050919050565b6000611ad4611acf611aca84611aa5565b611aaf565b611aa5565b9050919050565b6000819050919050565b611aee83611ab9565b611b02611afa82611adb565b848454611a53565b825550505050565b600090565b611b17611b0a565b611b22818484611ae5565b505050565b5b81811015611b4657611b3b600082611b0f565b600181019050611b28565b5050565b601f821115611b8b57611b5c81611a21565b611b6584611a36565b81016020851015611b74578190505b611b88611b8085611a36565b830182611b27565b50505b505050565b600082821c905092915050565b6000611bae60001984600802611b90565b1980831691505092915050565b6000611bc78383611b9d565b9150826002028217905092915050565b611be082611846565b67ffffffffffffffff811115611bf957611bf861153c565b5b611c0382546119f0565b611c0e828285611b4a565b600060209050601f831160018114611c415760008415611c2f578287015190505b611c398582611bbb565b865550611ca1565b601f198416611c4f86611a21565b60005b82811015611c7757848901518255600182019150602085019450602081019050611c52565b86831015611c945784890151611c90601f891682611b9d565b8355505b6001600288020188555050505b505050505050565b600082825260208201905092915050565b7f4f6e6c79206f776e65722063616e20706572666f726d2074686973206f70657260008201527f6174696f6e000000000000000000000000000000000000000000000000000000602082015250565b6000611d16602583611ca9565b9150611d2182611cba565b604082019050919050565b60006020820190508181036000830152611d4581611d09565b9050919050565b600081905092915050565b6000611d6282611846565b611d6c8185611d4c565b9350611d7c818560208601611862565b80840191505092915050565b6000611d948284611d57565b915081905092915050565b7f4e487b7100000000000000000000000000000000000000000000000000000000600052603260045260246000fd5b60008154611ddb816119f0565b611de58186611d4c565b94506001821660008114611e005760018114611e1557611e48565b60ff1983168652811515820286019350611e48565b611e1e85611a21565b60005b83811015611e4057815481890152600182019150602081019050611e21565b838801955050505b50505092915050565b6000611e5d8284611dce565b915081905092915050565b7f4e487b7100000000000000000000000000000000000000000000000000000000600052601160045260246000fd5b6000611ea282611aa5565b9150611ead83611aa5565b9250828203905081811115611ec557611ec4611e68565b5b92915050565b6000611ed682611aa5565b9150611ee183611aa5565b9250828201905080821115611ef957611ef8611e68565b5b92915050565b600081549050611f0e816119f0565b9050919050565b818103611f23575050611ffb565b611f2c82611eff565b67ffffffffffffffff811115611f4557611f4461153c565b5b611f4f82546119f0565b611f5a828285611b4a565b6000601f831160018114611f895760008415611f77578287015490505b611f818582611bbb565b865550611ff4565b601f198416611f9787611a21565b9650611fa286611a21565b60005b82811015611fca57848901548255600182019150600185019450602081019050611fa5565b86831015611fe75784890154611fe3601f891682611b9d565b8355505b6001600288020188555050505b5050505050505b565b7f4e487b7100000000000000000000000000000000000000000000000000000000600052603160045260246000fd5b7f416c7265616479206163636f756e7420697320646973616c6c6f770000000000600082015250565b6000612062601b83611ca9565b915061206d8261202c565b602082019050919050565b6000602082019050818103600083015261209181612055565b9050919050565b7f596f7520686176656e2774207065726d697373696f6e00000000000000000000600082015250565b60006120ce601683611ca9565b91506120d982612098565b602082019050919050565b600060208201905081810360008301526120fd816120c1565b9050919050565b7f416c7265616479206163636f756e7420697320616c6c6f776564000000000000600082015250565b600061213a601a83611ca9565b915061214582612104565b602082019050919050565b600060208201905081810360008301526121698161212d565b905091905056fea264697066735822122074cef9076215e5861030e1761502c7b5849507cdd4813f1d9d51d0d9cd8b0f6964736f6c63430008180033",
  "linkReferences": {},
  "deployedLinkReferences": {}
}