{
  "_format": "hh-sol-artifact-1",
  "contractName": "FileShare",
  "sourceName": "contracts/FileShare.sol",
  "abi": [
    {
      "inputs": [
        {
          "internalType": "address",
          "name": "_user",
          "type": "address"
        },
        {
          "internalType": "string",
          "name": "url",
          "type": "string"
        }
      ],
      "name": "add",
      "outputs": [],
      "stateMutability": "nonpayable",
      "type": "function"
    },
    {
      "inputs": [
        {
          "internalType": "address",
          "name": "_user",
          "type": "address"
        }
      ],
      "name": "allow",
      "outputs": [],
      "stateMutability": "nonpayable",
      "type": "function"
    },
    {
      "inputs": [
        {
          "internalType": "address",
          "name": "_user",
          "type": "address"
        }
      ],
      "name": "disAllow",
      "outputs": [],
      "stateMutability": "nonpayable",
      "type": "function"
    },
    {
      "inputs": [
        {
          "internalType": "address",
          "name": "_user",
          "type": "address"
        }
      ],
      "name": "display",
      "outputs": [
        {
          "internalType": "string[]",
          "name": "",
          "type": "string[]"
        }
      ],
      "stateMutability": "view",
      "type": "function"
    },
    {
      "inputs": [],
      "name": "shareList",
      "outputs": [
        {
          "components": [
            {
              "internalType": "address",
              "name": "user",
              "type": "address"
            },
            {
              "internalType": "bool",
              "name": "access",
              "type": "bool"
            }
          ],
          "internalType": "struct FileShare.Access[]",
          "name": "",
          "type": "tuple[]"
        }
      ],
      "stateMutability": "view",
      "type": "function"
    }
  ],
  "bytecode": "0x608060405234801561001057600080fd5b50611569806100206000396000f3fe608060405234801561001057600080fd5b50600436106100575760003560e01c806336d6da551461005c578063aa1b9d0414610078578063cf8aacdd14610096578063eb39113f146100b2578063ff9913e8146100e2575b600080fd5b61007660048036038101906100719190610d64565b6100fe565b005b61008061017d565b60405161008d9190610ecc565b60405180910390f35b6100b060048036038101906100ab9190610eee565b610286565b005b6100cc60048036038101906100c79190610eee565b61056d565b6040516100d9919061106d565b60405180910390f35b6100fc60048036038101906100f79190610eee565b610785565b005b6000808473ffffffffffffffffffffffffffffffffffffffff1673ffffffffffffffffffffffffffffffffffffffff1681526020019081526020016000208282909180600181540180825580915050600190039060005260206000200160009091929091929091929091925091826101779291906112df565b50505050565b6060600260003373ffffffffffffffffffffffffffffffffffffffff1673ffffffffffffffffffffffffffffffffffffffff168152602001908152602001600020805480602002602001604051908101604052809291908181526020016000905b8282101561027d578382906000526020600020016040518060400160405290816000820160009054906101000a900473ffffffffffffffffffffffffffffffffffffffff1673ffffffffffffffffffffffffffffffffffffffff1673ffffffffffffffffffffffffffffffffffffffff1681526020016000820160149054906101000a900460ff161515151581525050815260200190600101906101de565b50505050905090565b80600160003373ffffffffffffffffffffffffffffffffffffffff1673ffffffffffffffffffffffffffffffffffffffff16815260200190815260200160002060008273ffffffffffffffffffffffffffffffffffffffff1673ffffffffffffffffffffffffffffffffffffffff16815260200190815260200160002060009054906101000a900460ff16610350576040517f08c379a00000000000000000000000000000000000000000000000000000000081526004016103479061140c565b60405180910390fd5b6000600160003373ffffffffffffffffffffffffffffffffffffffff1673ffffffffffffffffffffffffffffffffffffffff16815260200190815260200160002060008473ffffffffffffffffffffffffffffffffffffffff1673ffffffffffffffffffffffffffffffffffffffff16815260200190815260200160002060006101000a81548160ff02191690831515021790555060005b600260003373ffffffffffffffffffffffffffffffffffffffff1673ffffffffffffffffffffffffffffffffffffffff16815260200190815260200160002080549050811015610568578273ffffffffffffffffffffffffffffffffffffffff16600260003373ffffffffffffffffffffffffffffffffffffffff1673ffffffffffffffffffffffffffffffffffffffff168152602001908152602001600020828154811061049a5761049961142c565b5b9060005260206000200160000160009054906101000a900473ffffffffffffffffffffffffffffffffffffffff1673ffffffffffffffffffffffffffffffffffffffff160361055b576000600260003373ffffffffffffffffffffffffffffffffffffffff1673ffffffffffffffffffffffffffffffffffffffff16815260200190815260200160002082815481106105365761053561142c565b5b9060005260206000200160000160146101000a81548160ff0219169083151502179055505b80806001019150506103e8565b505050565b6060818073ffffffffffffffffffffffffffffffffffffffff163373ffffffffffffffffffffffffffffffffffffffff1614806106305750600160008273ffffffffffffffffffffffffffffffffffffffff1673ffffffffffffffffffffffffffffffffffffffff16815260200190815260200160002060003373ffffffffffffffffffffffffffffffffffffffff1673ffffffffffffffffffffffffffffffffffffffff16815260200190815260200160002060009054906101000a900460ff165b61066f576040517f08c379a0000000000000000000000000000000000000000000000000000000008152600401610666906114a7565b60405180910390fd5b6000808473ffffffffffffffffffffffffffffffffffffffff1673ffffffffffffffffffffffffffffffffffffffff168152602001908152602001600020805480602002602001604051908101604052809291908181526020016000905b828210156107795783829060005260206000200180546106ec906110f8565b80601f0160208091040260200160405190810160405280929190818152602001828054610718906110f8565b80156107655780601f1061073a57610100808354040283529160200191610765565b820191906000526020600020905b81548152906001019060200180831161074857829003601f168201915b5050505050815260200190600101906106cd565b50505050915050919050565b80600160003373ffffffffffffffffffffffffffffffffffffffff1673ffffffffffffffffffffffffffffffffffffffff16815260200190815260200160002060008273ffffffffffffffffffffffffffffffffffffffff1673ffffffffffffffffffffffffffffffffffffffff16815260200190815260200160002060009054906101000a900460ff1615610850576040517f08c379a000000000000000000000000000000000000000000000000000000000815260040161084790611513565b60405180910390fd5b60018060003373ffffffffffffffffffffffffffffffffffffffff1673ffffffffffffffffffffffffffffffffffffffff16815260200190815260200160002060008473ffffffffffffffffffffffffffffffffffffffff1673ffffffffffffffffffffffffffffffffffffffff16815260200190815260200160002060006101000a81548160ff02191690831515021790555060011515600360003373ffffffffffffffffffffffffffffffffffffffff1673ffffffffffffffffffffffffffffffffffffffff16815260200190815260200160002060008473ffffffffffffffffffffffffffffffffffffffff1673ffffffffffffffffffffffffffffffffffffffff16815260200190815260200160002060009054906101000a900460ff16151503610b025760005b600260003373ffffffffffffffffffffffffffffffffffffffff1673ffffffffffffffffffffffffffffffffffffffff16815260200190815260200160002080549050811015610afc578273ffffffffffffffffffffffffffffffffffffffff16600260003373ffffffffffffffffffffffffffffffffffffffff1673ffffffffffffffffffffffffffffffffffffffff1681526020019081526020016000208281548110610a2e57610a2d61142c565b5b9060005260206000200160000160009054906101000a900473ffffffffffffffffffffffffffffffffffffffff1673ffffffffffffffffffffffffffffffffffffffff1603610aef576001600260003373ffffffffffffffffffffffffffffffffffffffff1673ffffffffffffffffffffffffffffffffffffffff1681526020019081526020016000208281548110610aca57610ac961142c565b5b9060005260206000200160000160146101000a81548160ff0219169083151502179055505b808060010191505061097c565b50610c93565b600260003373ffffffffffffffffffffffffffffffffffffffff1673ffffffffffffffffffffffffffffffffffffffff16815260200190815260200160002060405180604001604052808473ffffffffffffffffffffffffffffffffffffffff168152602001600115158152509080600181540180825580915050600190039060005260206000200160009091909190915060008201518160000160006101000a81548173ffffffffffffffffffffffffffffffffffffffff021916908373ffffffffffffffffffffffffffffffffffffffff16021790555060208201518160000160146101000a81548160ff02191690831515021790555050506001600360003373ffffffffffffffffffffffffffffffffffffffff1673ffffffffffffffffffffffffffffffffffffffff16815260200190815260200160002060008473ffffffffffffffffffffffffffffffffffffffff1673ffffffffffffffffffffffffffffffffffffffff16815260200190815260200160002060006101000a81548160ff0219169083151502179055505b5050565b600080fd5b600080fd5b600073ffffffffffffffffffffffffffffffffffffffff82169050919050565b6000610ccc82610ca1565b9050919050565b610cdc81610cc1565b8114610ce757600080fd5b50565b600081359050610cf981610cd3565b92915050565b600080fd5b600080fd5b600080fd5b60008083601f840112610d2457610d23610cff565b5b8235905067ffffffffffffffff811115610d4157610d40610d04565b5b602083019150836001820283011115610d5d57610d5c610d09565b5b9250929050565b600080600060408486031215610d7d57610d7c610c97565b5b6000610d8b86828701610cea565b935050602084013567ffffffffffffffff811115610dac57610dab610c9c565b5b610db886828701610d0e565b92509250509250925092565b600081519050919050565b600082825260208201905092915050565b6000819050602082019050919050565b610df981610cc1565b82525050565b60008115159050919050565b610e1481610dff565b82525050565b604082016000820151610e306000850182610df0565b506020820151610e436020850182610e0b565b50505050565b6000610e558383610e1a565b60408301905092915050565b6000602082019050919050565b6000610e7982610dc4565b610e838185610dcf565b9350610e8e83610de0565b8060005b83811015610ebf578151610ea68882610e49565b9750610eb183610e61565b925050600181019050610e92565b5085935050505092915050565b60006020820190508181036000830152610ee68184610e6e565b905092915050565b600060208284031215610f0457610f03610c97565b5b6000610f1284828501610cea565b91505092915050565b600081519050919050565b600082825260208201905092915050565b6000819050602082019050919050565b600081519050919050565b600082825260208201905092915050565b60005b83811015610f81578082015181840152602081019050610f66565b60008484015250505050565b6000601f19601f8301169050919050565b6000610fa982610f47565b610fb38185610f52565b9350610fc3818560208601610f63565b610fcc81610f8d565b840191505092915050565b6000610fe38383610f9e565b905092915050565b6000602082019050919050565b600061100382610f1b565b61100d8185610f26565b93508360208202850161101f85610f37565b8060005b8581101561105b578484038952815161103c8582610fd7565b945061104783610feb565b925060208a01995050600181019050611023565b50829750879550505050505092915050565b600060208201905081810360008301526110878184610ff8565b905092915050565b600082905092915050565b7f4e487b7100000000000000000000000000000000000000000000000000000000600052604160045260246000fd5b7f4e487b7100000000000000000000000000000000000000000000000000000000600052602260045260246000fd5b6000600282049050600182168061111057607f821691505b602082108103611123576111226110c9565b5b50919050565b60008190508160005260206000209050919050565b60006020601f8301049050919050565b600082821b905092915050565b60006008830261118b7fffffffffffffffffffffffffffffffffffffffffffffffffffffffffffffffff8261114e565b611195868361114e565b95508019841693508086168417925050509392505050565b6000819050919050565b6000819050919050565b60006111dc6111d76111d2846111ad565b6111b7565b6111ad565b9050919050565b6000819050919050565b6111f6836111c1565b61120a611202826111e3565b84845461115b565b825550505050565b600090565b61121f611212565b61122a8184846111ed565b505050565b5b8181101561124e57611243600082611217565b600181019050611230565b5050565b601f8211156112935761126481611129565b61126d8461113e565b8101602085101561127c578190505b6112906112888561113e565b83018261122f565b50505b505050565b600082821c905092915050565b60006112b660001984600802611298565b1980831691505092915050565b60006112cf83836112a5565b9150826002028217905092915050565b6112e9838361108f565b67ffffffffffffffff8111156113025761130161109a565b5b61130c82546110f8565b611317828285611252565b6000601f8311600181146113465760008415611334578287013590505b61133e85826112c3565b8655506113a6565b601f19841661135486611129565b60005b8281101561137c57848901358255600182019150602085019450602081019050611357565b868310156113995784890135611395601f8916826112a5565b8355505b6001600288020188555050505b50505050505050565b600082825260208201905092915050565b7f416c7265616479206163636f756e7420697320646973616c6c6f770000000000600082015250565b60006113f6601b836113af565b9150611401826113c0565b602082019050919050565b60006020820190508181036000830152611425816113e9565b9050919050565b7f4e487b7100000000000000000000000000000000000000000000000000000000600052603260045260246000fd5b7f596f7520686176656e2774207065726d697373696f6e00000000000000000000600082015250565b60006114916016836113af565b915061149c8261145b565b602082019050919050565b600060208201905081810360008301526114c081611484565b9050919050565b7f416c7265616479206163636f756e7420697320616c6c6f776564000000000000600082015250565b60006114fd601a836113af565b9150611508826114c7565b602082019050919050565b6000602082019050818103600083015261152c816114f0565b905091905056fea2646970667358221220eec24f22b6a89f9da1804fb9d0d2abd81503a83794bd6e2e607fece4a3d2c79164736f6c63430008180033",
  "linkReferences": {},
  "deployedLinkReferences": {}
}